{
  "contractName": "NumberBaseball",
  "abi": [
    {
      "inputs": [
        {
          "internalType": "address",
          "name": "_managerAddress",
          "type": "address"
        }
      ],
      "stateMutability": "nonpayable",
      "type": "constructor"
    },
    {
      "anonymous": false,
      "inputs": [
        {
          "indexed": false,
          "internalType": "address",
          "name": "winner",
          "type": "address"
        },
        {
          "indexed": false,
          "internalType": "uint256",
          "name": "winningNumber",
          "type": "uint256"
        },
        {
          "indexed": false,
          "internalType": "uint256",
          "name": "winningAmount",
          "type": "uint256"
        }
      ],
      "name": "GameEnded",
      "type": "event"
    },
    {
      "anonymous": false,
      "inputs": [],
      "name": "GameStarted",
      "type": "event"
    },
    {
      "anonymous": false,
      "inputs": [
        {
          "indexed": false,
          "internalType": "address",
          "name": "player",
          "type": "address"
        },
        {
          "indexed": false,
          "internalType": "uint256",
          "name": "guess",
          "type": "uint256"
        },
        {
          "indexed": false,
          "internalType": "uint256",
          "name": "numStrikes",
          "type": "uint256"
        },
        {
          "indexed": false,
          "internalType": "uint256",
          "name": "numBalls",
          "type": "uint256"
        }
      ],
      "name": "GuessResult",
      "type": "event"
    },
    {
      "anonymous": false,
      "inputs": [
        {
          "indexed": false,
          "internalType": "address",
          "name": "player",
          "type": "address"
        }
      ],
      "name": "TurnStarted",
      "type": "event"
    },
    {
      "anonymous": false,
      "inputs": [
        {
          "indexed": false,
          "internalType": "address",
          "name": "player",
          "type": "address"
        }
      ],
      "name": "TurnTimedOut",
      "type": "event"
    },
    {
      "inputs": [],
      "name": "JOIN_FEE",
      "outputs": [
        {
          "internalType": "uint256",
          "name": "",
          "type": "uint256"
        }
      ],
      "stateMutability": "view",
      "type": "function"
    },
    {
      "inputs": [],
      "name": "MAX_PLAYERS",
      "outputs": [
        {
          "internalType": "uint256",
          "name": "",
          "type": "uint256"
        }
      ],
      "stateMutability": "view",
      "type": "function"
    },
    {
      "inputs": [],
      "name": "PLAY_FEE",
      "outputs": [
        {
          "internalType": "uint256",
          "name": "",
          "type": "uint256"
        }
      ],
      "stateMutability": "view",
      "type": "function"
    },
    {
      "inputs": [],
      "name": "currentTurn",
      "outputs": [
        {
          "internalType": "uint256",
          "name": "",
          "type": "uint256"
        }
      ],
      "stateMutability": "view",
      "type": "function"
    },
    {
      "inputs": [],
      "name": "numPlayers",
      "outputs": [
        {
          "internalType": "uint256",
          "name": "",
          "type": "uint256"
        }
      ],
      "stateMutability": "view",
      "type": "function"
    },
    {
      "inputs": [
        {
          "internalType": "address",
          "name": "",
          "type": "address"
        }
      ],
      "name": "playerAmounts",
      "outputs": [
        {
          "internalType": "uint256",
          "name": "",
          "type": "uint256"
        }
      ],
      "stateMutability": "view",
      "type": "function"
    },
    {
      "inputs": [
        {
          "internalType": "address",
          "name": "",
          "type": "address"
        }
      ],
      "name": "playerGuesses",
      "outputs": [
        {
          "internalType": "uint256",
          "name": "",
          "type": "uint256"
        }
      ],
      "stateMutability": "view",
      "type": "function"
    },
    {
      "inputs": [
        {
          "internalType": "address",
          "name": "",
          "type": "address"
        }
      ],
      "name": "playerLastAction",
      "outputs": [
        {
          "internalType": "uint256",
          "name": "",
          "type": "uint256"
        }
      ],
      "stateMutability": "view",
      "type": "function"
    },
    {
      "inputs": [
        {
          "internalType": "address",
          "name": "",
          "type": "address"
        }
      ],
      "name": "playerPlayed",
      "outputs": [
        {
          "internalType": "bool",
          "name": "",
          "type": "bool"
        }
      ],
      "stateMutability": "view",
      "type": "function"
    },
    {
      "inputs": [
        {
          "internalType": "address",
          "name": "",
          "type": "address"
        }
      ],
      "name": "playerWithdrawn",
      "outputs": [
        {
          "internalType": "bool",
          "name": "",
          "type": "bool"
        }
      ],
      "stateMutability": "view",
      "type": "function"
    },
    {
      "inputs": [
        {
          "internalType": "uint256",
          "name": "",
          "type": "uint256"
        }
      ],
      "name": "players",
      "outputs": [
        {
          "internalType": "address payable",
          "name": "",
          "type": "address"
        }
      ],
      "stateMutability": "view",
      "type": "function"
    },
    {
      "inputs": [],
      "name": "turnTimedoutTimestamp",
      "outputs": [
        {
          "internalType": "uint256",
          "name": "",
          "type": "uint256"
        }
      ],
      "stateMutability": "view",
      "type": "function"
    },
    {
      "inputs": [],
      "name": "winner",
      "outputs": [
        {
          "internalType": "address payable",
          "name": "",
          "type": "address"
        }
      ],
      "stateMutability": "view",
      "type": "function"
    },
    {
      "inputs": [],
      "name": "winningAmount",
      "outputs": [
        {
          "internalType": "uint256",
          "name": "",
          "type": "uint256"
        }
      ],
      "stateMutability": "view",
      "type": "function"
    },
    {
      "inputs": [],
      "name": "winningNumber",
      "outputs": [
        {
          "internalType": "uint256",
          "name": "",
          "type": "uint256"
        }
      ],
      "stateMutability": "view",
      "type": "function"
    },
    {
      "stateMutability": "payable",
      "type": "receive"
    },
    {
      "inputs": [],
      "name": "joinGame",
      "outputs": [],
      "stateMutability": "payable",
      "type": "function"
    },
    {
      "inputs": [
        {
          "internalType": "uint256",
          "name": "guess",
          "type": "uint256"
        }
      ],
      "name": "play",
      "outputs": [],
      "stateMutability": "payable",
      "type": "function"
    },
    {
      "inputs": [
        {
          "internalType": "address",
          "name": "player",
          "type": "address"
        }
      ],
      "name": "isWinner",
      "outputs": [
        {
          "internalType": "bool",
          "name": "",
          "type": "bool"
        }
      ],
      "stateMutability": "view",
      "type": "function"
    },
    {
      "inputs": [],
      "name": "withdraw",
      "outputs": [],
      "stateMutability": "nonpayable",
      "type": "function"
    }
  ],
  "bytecode": "0x60806040523480156200001157600080fd5b5060405162001f5538038062001f558339818101604052810190620000379190620000e8565b806000806101000a81548173ffffffffffffffffffffffffffffffffffffffff021916908373ffffffffffffffffffffffffffffffffffffffff160217905550506200011a565b600080fd5b600073ffffffffffffffffffffffffffffffffffffffff82169050919050565b6000620000b08262000083565b9050919050565b620000c281620000a3565b8114620000ce57600080fd5b50565b600081519050620000e281620000b7565b92915050565b6000602082840312156200010157620001006200007e565b5b60006200011184828501620000d1565b91505092915050565b611e2b806200012a6000396000f3fe6080604052600436106101185760003560e01c806398f22c12116100a0578063d4f77b1c11610064578063d4f77b1c146103b5578063deb61286146103bf578063dfbf53ae146103ea578063e7f69f3214610415578063f71d96cb146104525761011f565b806398f22c12146102ba5780639d66928e146102e55780639d9ca28d146103225780639fd6af8a1461035f578063c0b226dc1461038a5761011f565b80634664611e116100e75780634664611e146101ce5780636898f82b146101f957806385a77fd31461021557806397b2f5561461025257806397d9772c1461027d5761011f565b806324396bde1461012457806325cf0d67146101615780633ccfd60b1461018c5780634411b3eb146101a35761011f565b3661011f57005b600080fd5b34801561013057600080fd5b5061014b600480360381019061014691906112a7565b61048f565b60405161015891906112ed565b60405180910390f35b34801561016d57600080fd5b506101766104a7565b60405161018391906112ed565b60405180910390f35b34801561019857600080fd5b506101a16104ad565b005b3480156101af57600080fd5b506101b8610672565b6040516101c591906112ed565b60405180910390f35b3480156101da57600080fd5b506101e3610677565b6040516101f091906112ed565b60405180910390f35b610213600480360381019061020e9190611334565b61067d565b005b34801561022157600080fd5b5061023c600480360381019061023791906112a7565b610a39565b604051610249919061137c565b60405180910390f35b34801561025e57600080fd5b50610267610a59565b60405161027491906112ed565b60405180910390f35b34801561028957600080fd5b506102a4600480360381019061029f91906112a7565b610a5f565b6040516102b191906112ed565b60405180910390f35b3480156102c657600080fd5b506102cf610a77565b6040516102dc91906112ed565b60405180910390f35b3480156102f157600080fd5b5061030c600480360381019061030791906112a7565b610a7d565b60405161031991906112ed565b60405180910390f35b34801561032e57600080fd5b50610349600480360381019061034491906112a7565b610a95565b604051610356919061137c565b60405180910390f35b34801561036b57600080fd5b50610374610aef565b60405161038191906112ed565b60405180910390f35b34801561039657600080fd5b5061039f610afb565b6040516103ac91906112ed565b60405180910390f35b6103bd610b07565b005b3480156103cb57600080fd5b506103d4610cf7565b6040516103e191906112ed565b60405180910390f35b3480156103f657600080fd5b506103ff610cfd565b60405161040c91906113b8565b60405180910390f35b34801561042157600080fd5b5061043c600480360381019061043791906112a7565b610d23565b604051610449919061137c565b60405180910390f35b34801561045e57600080fd5b5061047960048036038101906104749190611334565b610d43565b60405161048691906113b8565b60405180910390f35b60086020528060005260406000206000915090505481565b60035481565b6104b633610a95565b6104f5576040517f08c379a00000000000000000000000000000000000000000000000000000000081526004016104ec90611430565b60405180910390fd5b600b60003373ffffffffffffffffffffffffffffffffffffffff1673ffffffffffffffffffffffffffffffffffffffff16815260200190815260200160002060009054906101000a900460ff1615610582576040517f08c379a0000000000000000000000000000000000000000000000000000000008152600401610579906114c2565b60405180910390fd5b6001600b60003373ffffffffffffffffffffffffffffffffffffffff1673ffffffffffffffffffffffffffffffffffffffff16815260200190815260200160002060006101000a81548160ff021916908315150217905550600660009054906101000a900473ffffffffffffffffffffffffffffffffffffffff1673ffffffffffffffffffffffffffffffffffffffff166108fc479081150290604051600060405180830381858888f19350505050610670576040517f08c379a000000000000000000000000000000000000000000000000000000000815260040161066790611554565b60405180910390fd5b565b600281565b60045481565b600060648261068c91906115d2565b90506000600a808461069e91906115d2565b6106a89190611603565b90506000600a846106b99190611603565b905060015460025410610701576040517f08c379a00000000000000000000000000000000000000000000000000000000081526004016106f890611680565b60405180910390fd5b60076000600254815260200190815260200160002060009054906101000a900473ffffffffffffffffffffffffffffffffffffffff1673ffffffffffffffffffffffffffffffffffffffff163373ffffffffffffffffffffffffffffffffffffffff16146107a4576040517f08c379a000000000000000000000000000000000000000000000000000000000815260040161079b906116ec565b60405180910390fd5b67016345785d8a00003410156107ef576040517f08c379a00000000000000000000000000000000000000000000000000000000081526004016107e69061177e565b60405180910390fd5b6064841015801561080257506103e78411155b610841576040517f08c379a0000000000000000000000000000000000000000000000000000000008152600401610838906117ea565b60405180910390fd5b8183141580156108515750808214155b801561085d5750828114155b61089c576040517f08c379a000000000000000000000000000000000000000000000000000000000815260040161089390611856565b60405180910390fd5b34600560008282546108ae9190611876565b925050819055506000806108c486600454610d76565b9150915085600860003373ffffffffffffffffffffffffffffffffffffffff1673ffffffffffffffffffffffffffffffffffffffff168152602001908152602001600020819055506001600a60003373ffffffffffffffffffffffffffffffffffffffff1673ffffffffffffffffffffffffffffffffffffffff16815260200190815260200160002060006101000a81548160ff021916908315150217905550600382036109bf5733600660006101000a81548173ffffffffffffffffffffffffffffffffffffffff021916908373ffffffffffffffffffffffffffffffffffffffff1602179055506109b5610ea3565b5050505050610a36565b7f267138c159b2fb85a96b992ea88ff79a6f94a041083542b485a175e4dd59c335338784846040516109f494939291906118b9565b60405180910390a160026000815480929190610a0f906118fe565b919050555060015460025403610a285760006002819055505b610a30611025565b50505050505b50565b600a6020528060005260406000206000915054906101000a900460ff1681565b60015481565b600c6020528060005260406000206000915090505481565b60055481565b60096020528060005260406000206000915090505481565b6000600660009054906101000a900473ffffffffffffffffffffffffffffffffffffffff1673ffffffffffffffffffffffffffffffffffffffff168273ffffffffffffffffffffffffffffffffffffffff16149050919050565b67016345785d8a000081565b670de0b6b3a764000081565b600260015410610b4c576040517f08c379a0000000000000000000000000000000000000000000000000000000008152600401610b43906119b8565b60405180910390fd5b670de0b6b3a7640000341015610b97576040517f08c379a0000000000000000000000000000000000000000000000000000000008152600401610b8e90611a4a565b60405180910390fd5b6000600960003373ffffffffffffffffffffffffffffffffffffffff1673ffffffffffffffffffffffffffffffffffffffff1681526020019081526020016000205414610c19576040517f08c379a0000000000000000000000000000000000000000000000000000000008152600401610c1090611ab6565b60405180910390fd5b3360076000600154815260200190815260200160002060006101000a81548173ffffffffffffffffffffffffffffffffffffffff021916908373ffffffffffffffffffffffffffffffffffffffff16021790555034600960003373ffffffffffffffffffffffffffffffffffffffff1673ffffffffffffffffffffffffffffffffffffffff1681526020019081526020016000208190555060016000815480929190610cc4906118fe565b91905055503460056000828254610cdb9190611876565b92505081905550600260015403610cf557610cf46110dd565b5b565b60025481565b600660009054906101000a900473ffffffffffffffffffffffffffffffffffffffff1681565b600b6020528060005260406000206000915054906101000a900460ff1681565b60076020528060005260406000206000915054906101000a900473ffffffffffffffffffffffffffffffffffffffff1681565b60008060008060005b6003811015610e9957600a81600a610d979190611c09565b88610da291906115d2565b610dac9190611603565b9250600a81600a610dbd9190611c09565b87610dc891906115d2565b610dd29190611603565b9150818303610dee578480610de6906118fe565b955050610e86565b600a6003600183610dff9190611876565b610e099190611603565b600a610e159190611c09565b87610e2091906115d2565b610e2a9190611603565b831480610e715750600a6003600283610e439190611876565b610e4d9190611603565b600a610e599190611c09565b87610e6491906115d2565b610e6e9190611603565b83145b15610e85578380610e81906118fe565b9450505b5b8080610e91906118fe565b915050610d7f565b5050509250929050565b47600581905550600660009054906101000a900473ffffffffffffffffffffffffffffffffffffffff1673ffffffffffffffffffffffffffffffffffffffff166108fc6005549081150290604051600060405180830381858888f19350505050610f42576040517f08c379a0000000000000000000000000000000000000000000000000000000008152600401610f3990611554565b60405180910390fd5b7f8420a32dd381606a863bf5711eb04325b7da1cb03e87d6167fab0afe1a9da80c600660009054906101000a900473ffffffffffffffffffffffffffffffffffffffff16600454600554604051610f9b93929190611cb3565b60405180910390a160008054906101000a900473ffffffffffffffffffffffffffffffffffffffff1673ffffffffffffffffffffffffffffffffffffffff16632020b4aa6040518163ffffffff1660e01b8152600401600060405180830381600087803b15801561100b57600080fd5b505af115801561101f573d6000803e3d6000fd5b50505050565b600060076000600254815260200190815260200160002060009054906101000a900473ffffffffffffffffffffffffffffffffffffffff16905042600c60008373ffffffffffffffffffffffffffffffffffffffff1673ffffffffffffffffffffffffffffffffffffffff168152602001908152602001600020819055507fabfca51f44b50836e10435a5fb5b21c88ee2c716915b05e22c51efabf92a1f06816040516110d29190611cea565b60405180910390a150565b600260015414611122576040517f08c379a000000000000000000000000000000000000000000000000000000000815260040161111990611d77565b60405180910390fd5b60005b8080611130906118fe565b915050606461038442448460405160200161114d93929190611db8565b6040516020818303038152906040528051906020012060001c6111709190611603565b61117a9190611876565b600481905550600a8060045461119091906115d2565b61119a9190611603565b600a6004546111a99190611603565b14806111d0575060646004546111bf91906115d2565b600a6004546111ce9190611603565b145b80611201575060646004546111e591906115d2565b600a806004546111f591906115d2565b6111ff9190611603565b145b611125577f762f260439bb4be3ef6e4dc2786e2e7bd187d3d80b79057d7a424fe98563e33560405160405180910390a16000600281905550611241611025565b50565b600080fd5b600073ffffffffffffffffffffffffffffffffffffffff82169050919050565b600061127482611249565b9050919050565b61128481611269565b811461128f57600080fd5b50565b6000813590506112a18161127b565b92915050565b6000602082840312156112bd576112bc611244565b5b60006112cb84828501611292565b91505092915050565b6000819050919050565b6112e7816112d4565b82525050565b600060208201905061130260008301846112de565b92915050565b611311816112d4565b811461131c57600080fd5b50565b60008135905061132e81611308565b92915050565b60006020828403121561134a57611349611244565b5b60006113588482850161131f565b91505092915050565b60008115159050919050565b61137681611361565b82525050565b6000602082019050611391600083018461136d565b92915050565b60006113a282611249565b9050919050565b6113b281611397565b82525050565b60006020820190506113cd60008301846113a9565b92915050565b600082825260208201905092915050565b7f596f7520617265206e6f74207468652077696e6e657200000000000000000000600082015250565b600061141a6016836113d3565b9150611425826113e4565b602082019050919050565b600060208201905081810360008301526114498161140d565b9050919050565b7f596f75206861766520616c72656164792077697468647261776e20796f75722060008201527f7072697a65000000000000000000000000000000000000000000000000000000602082015250565b60006114ac6025836113d3565b91506114b782611450565b604082019050919050565b600060208201905081810360008301526114db8161149f565b9050919050565b7f4661696c656420746f2073656e6420657468657220746f207468652077696e6e60008201527f6572000000000000000000000000000000000000000000000000000000000000602082015250565b600061153e6022836113d3565b9150611549826114e2565b604082019050919050565b6000602082019050818103600083015261156d81611531565b9050919050565b7f4e487b7100000000000000000000000000000000000000000000000000000000600052601260045260246000fd5b7f4e487b7100000000000000000000000000000000000000000000000000000000600052601160045260246000fd5b60006115dd826112d4565b91506115e8836112d4565b9250826115f8576115f7611574565b5b828204905092915050565b600061160e826112d4565b9150611619836112d4565b92508261162957611628611574565b5b828206905092915050565b7f47616d65206973206e6f7420696e2070726f6772657373000000000000000000600082015250565b600061166a6017836113d3565b915061167582611634565b602082019050919050565b600060208201905081810360008301526116998161165d565b9050919050565b7f49742773206e6f7420796f7572207475726e0000000000000000000000000000600082015250565b60006116d66012836113d3565b91506116e1826116a0565b602082019050919050565b60006020820190508181036000830152611705816116c9565b9050919050565b7f496e73756666696369656e7420616d6f756e7420746f20706c6179207468652060008201527f67616d6500000000000000000000000000000000000000000000000000000000602082015250565b60006117686024836113d3565b91506117738261170c565b604082019050919050565b600060208201905081810360008301526117978161175b565b9050919050565b7f496e76616c696420677565737300000000000000000000000000000000000000600082015250565b60006117d4600d836113d3565b91506117df8261179e565b602082019050919050565b60006020820190508181036000830152611803816117c7565b9050919050565b7f416c6c20646967697473206d75737420626520646966666572656e7400000000600082015250565b6000611840601c836113d3565b915061184b8261180a565b602082019050919050565b6000602082019050818103600083015261186f81611833565b9050919050565b6000611881826112d4565b915061188c836112d4565b92508282019050808211156118a4576118a36115a3565b5b92915050565b6118b381611269565b82525050565b60006080820190506118ce60008301876118aa565b6118db60208301866112de565b6118e860408301856112de565b6118f560608301846112de565b95945050505050565b6000611909826112d4565b91507fffffffffffffffffffffffffffffffffffffffffffffffffffffffffffffffff820361193b5761193a6115a3565b5b600182019050919050565b7f4d6178696d756d206e756d626572206f6620706c61796572732072656163686560008201527f6400000000000000000000000000000000000000000000000000000000000000602082015250565b60006119a26021836113d3565b91506119ad82611946565b604082019050919050565b600060208201905081810360008301526119d181611995565b9050919050565b7f496e73756666696369656e7420616d6f756e7420746f206a6f696e207468652060008201527f67616d6500000000000000000000000000000000000000000000000000000000602082015250565b6000611a346024836113d3565b9150611a3f826119d8565b604082019050919050565b60006020820190508181036000830152611a6381611a27565b9050919050565b7f596f75206861766520616c7265616479206a6f696e6564207468652067616d65600082015250565b6000611aa06020836113d3565b9150611aab82611a6a565b602082019050919050565b60006020820190508181036000830152611acf81611a93565b9050919050565b60008160011c9050919050565b6000808291508390505b6001851115611b2d57808604811115611b0957611b086115a3565b5b6001851615611b185780820291505b8081029050611b2685611ad6565b9450611aed565b94509492505050565b600082611b465760019050611c02565b81611b545760009050611c02565b8160018114611b6a5760028114611b7457611ba3565b6001915050611c02565b60ff841115611b8657611b856115a3565b5b8360020a915084821115611b9d57611b9c6115a3565b5b50611c02565b5060208310610133831016604e8410600b8410161715611bd85782820a905083811115611bd357611bd26115a3565b5b611c02565b611be58484846001611ae3565b92509050818404811115611bfc57611bfb6115a3565b5b81810290505b9392505050565b6000611c14826112d4565b9150611c1f836112d4565b9250611c4c7fffffffffffffffffffffffffffffffffffffffffffffffffffffffffffffffff8484611b36565b905092915050565b6000819050919050565b6000611c79611c74611c6f84611249565b611c54565b611249565b9050919050565b6000611c8b82611c5e565b9050919050565b6000611c9d82611c80565b9050919050565b611cad81611c92565b82525050565b6000606082019050611cc86000830186611ca4565b611cd560208301856112de565b611ce260408301846112de565b949350505050565b6000602082019050611cff60008301846118aa565b92915050565b7f4e6f7420656e6f75676820706c617965727320746f207374617274207468652060008201527f67616d6500000000000000000000000000000000000000000000000000000000602082015250565b6000611d616024836113d3565b9150611d6c82611d05565b604082019050919050565b60006020820190508181036000830152611d9081611d54565b9050919050565b6000819050919050565b611db2611dad826112d4565b611d97565b82525050565b6000611dc48286611da1565b602082019150611dd48285611da1565b602082019150611de48284611da1565b60208201915081905094935050505056fea2646970667358221220fccf0f0316940696ed579c9ecd37ede1539357facd80b427873000223721a5a564736f6c63430008130033",
  "immutableReferences": {},
  "source": "// SPDX-License-Identifier: MIT\npragma solidity ^0.8.0;\n\n//   \ncontract GameManager {\n    // game contract address list\n    address[] public games;\n    NumberBaseball public game;\n\n    constructor() {\n        // deploy new game contract\n        games.push(address(new NumberBaseball(address(this))));\n    }\n\n    function getGameAddress() public view returns (address) {\n        return games[games.length - 1];\n    }\n\n    function getGameHistory() public view returns (address[] memory) {\n        return games;\n    }\n\n    function onGameEnded() external {\n        require(\n            msg.sender == address(games[games.length - 1]),\n            \"Only game contract can call this function\"\n        );\n\n        // deploy new game contract\n        games.push(address(new NumberBaseball(address(this))));\n\n        // subscribe to game events\n        address gameAddress = getGameAddress();\n        game = NumberBaseball(payable(gameAddress));\n    }\n}\n\ncontract NumberBaseball {\n    address private managerAddress; //   \n\n    uint public constant MAX_PLAYERS = 2; //   \n    uint public constant JOIN_FEE = 1 ether; // \n    uint public constant PLAY_FEE = 0.1 ether; //   \n\n    uint public numPlayers; //  \n    uint public currentTurn; //  \n    uint public turnTimedoutTimestamp; //   \n    uint public winningNumber; //  \n    uint public winningAmount; //    \n    address payable public winner; //   \n\n    mapping(uint => address payable) public players; //  \n    mapping(address => uint) public playerGuesses; //   \n    mapping(address => uint) public playerAmounts; //   \n    mapping(address => bool) public playerPlayed; //     \n    mapping(address => bool) public playerWithdrawn; //     \n    mapping(address => uint) public playerLastAction; //    \n\n    event GameStarted();\n    event TurnStarted(address player);\n    event GuessResult(\n        address player,\n        uint guess,\n        uint numStrikes,\n        uint numBalls\n    );\n    event GameEnded(address winner, uint winningNumber, uint winningAmount);\n    event TurnTimedOut(address player);\n\n    constructor(address _managerAddress) {\n        managerAddress = _managerAddress;\n    }\n\n    //    \n    function joinGame() public payable {\n        require(numPlayers < MAX_PLAYERS, \"Maximum number of players reached\");\n        require(msg.value >= JOIN_FEE, \"Insufficient amount to join the game\");\n        require(\n            playerAmounts[msg.sender] == 0,\n            \"You have already joined the game\"\n        );\n\n        players[numPlayers] = payable(msg.sender);\n        playerAmounts[msg.sender] = msg.value;\n        numPlayers++;\n        winningAmount += msg.value;\n\n        if (numPlayers == MAX_PLAYERS) {\n            startGame();\n        }\n    }\n\n    //   \n    function startGame() private {\n        require(\n            numPlayers == MAX_PLAYERS,\n            \"Not enough players to start the game\"\n        );\n\n        //  3  \n        uint seed = 0;\n        do {\n            seed++;\n            winningNumber =\n                (uint(\n                    keccak256(\n                        abi.encodePacked(\n                            block.timestamp,\n                            block.prevrandao,\n                            seed\n                        )\n                    )\n                ) % 900) +\n                100;\n        } while (\n            winningNumber % 10 == (winningNumber / 10) % 10 ||\n                winningNumber % 10 == winningNumber / 100 ||\n                (winningNumber / 10) % 10 == winningNumber / 100\n        );\n\n        emit GameStarted();\n\n        //    \n        currentTurn = 0;\n        startTurn();\n    }\n\n    //   \n    function startTurn() private {\n        address player = players[currentTurn];\n        playerLastAction[player] = block.timestamp;\n\n        emit TurnStarted(player);\n    }\n\n    //   \n    function play(uint guess) public payable {\n        uint first_digit = guess / 100;\n        uint second_digit = (guess / 10) % 10;\n        uint third_digit = guess % 10;\n\n        require(currentTurn < numPlayers, \"Game is not in progress\");\n        require(msg.sender == players[currentTurn], \"It's not your turn\");\n        require(msg.value >= PLAY_FEE, \"Insufficient amount to play the game\");\n        require(guess >= 100 && guess <= 999, \"Invalid guess\");\n        require(\n            first_digit != second_digit &&\n                second_digit != third_digit &&\n                third_digit != first_digit,\n            \"All digits must be different\"\n        );\n\n        //  \n        winningAmount += msg.value;\n\n        //  \n        (uint numStrikes, uint numBalls) = compareNumbers(guess, winningNumber);\n\n        //  \n        playerGuesses[msg.sender] = guess;\n        playerPlayed[msg.sender] = true;\n\n        //  3  \n        if (numStrikes == 3) {\n            winner = payable(msg.sender);\n            endGame();\n            return;\n        } else {\n            //  3    \n            emit GuessResult(msg.sender, guess, numStrikes, numBalls);\n        }\n\n        //   \n        currentTurn++;\n        if (currentTurn == numPlayers) {\n            currentTurn = 0;\n        }\n        startTurn();\n    }\n\n    //   \n    function compareNumbers(\n        uint guess,\n        uint answer\n    ) private pure returns (uint numStrikesResult, uint numBallsResult) {\n        uint guessDigit;\n        uint answerDigit;\n\n        for (uint i = 0; i < 3; i++) {\n            guessDigit = (guess / (10 ** i)) % 10;\n            answerDigit = (answer / (10 ** i)) % 10;\n\n            if (guessDigit == answerDigit) {\n                numStrikesResult++;\n            } else if (\n                //     \n                guessDigit == ((answer / (10 ** ((i + 1) % 3))) % 10) ||\n                guessDigit == ((answer / (10 ** ((i + 2) % 3))) % 10)\n            ) {\n                numBallsResult++;\n            }\n        }\n    }\n\n    //   \n    function endGame() private {\n        //    \n        winningAmount = address(this).balance;\n        if (!winner.send(winningAmount)) {\n            revert(\"Failed to send ether to the winner\");\n        }\n\n        emit GameEnded(winner, winningNumber, winningAmount);\n\n        //     \n        GameManager(managerAddress).onGameEnded();\n    }\n\n    //     \n    function isWinner(address player) public view returns (bool) {\n        return player == winner;\n    }\n\n    //       \n    function withdraw() public {\n        require(isWinner(msg.sender), \"You are not the winner\");\n        require(\n            !playerWithdrawn[msg.sender],\n            \"You have already withdrawn your prize\"\n        );\n\n        playerWithdrawn[msg.sender] = true;\n\n        // send current balance to the winner\n        if (!winner.send(address(this).balance)) {\n            revert(\"Failed to send ether to the winner\");\n        }\n    }\n\n    //    ether  \n    receive() external payable {}\n}\n",
  "sourcePath": "/Users/hoon/Lecture/2023-1/NetPrac/NetPracBlockchain/baseball/contracts/baseball.sol",
  "compiler": {
    "name": "solc",
    "version": "0.8.19+commit.7dd6d404.Emscripten.clang"
  },
  "schemaVersion": "3.4.13",
  "updatedAt": "2023-05-07T19:54:24.264Z",
  "devdoc": {
    "kind": "dev",
    "methods": {},
    "version": 1
  },
  "userdoc": {
    "kind": "user",
    "methods": {},
    "version": 1
  }
}